:100000000C9463000C948B000C948B000C94F00304
:100010000C94F0030C94F0030C948B000C948B0064
:100020000C948B000C948B000C948B000C948B0024
:100030000C948B000C948B000C948B000C948B0014
:100040000C944E030C948B000C94BE030C949803F8
:100050000C948B000C948B000C948B000C948B00F4
:100060000C948B000C948B0000000008000201002F
:100070000003040700000000000000000000000072
:10008000250028002B0000000000240027002A0083
:1000900000000000230026002900040404040404D6
:1000A0000404020202020202030303030303010227
:1000B00004081020408001020408102001020408F6
:1000C00010206A04540711241FBECFEFD8E0DEBF12
:1000D000CDBF22E0AAE4B1E001C01D92A735B2076E
:1000E000E1F711E0A0E0B1E0EEE0F4E102C005903C
:1000F0000D92AA34B107D9F710E0C2E6D0E004C0EF
:100100002197FE010E94DF07C136D107C9F70E947F
:100110004C050C94FA090C94000090E0FC01E8599D
:10012000FF4F3491FC01E255FF4F2491FC01E6564C
:10013000FF4FE491EE2309F43BC0332339F1333010
:1001400091F038F43130A9F0323001F584B58F7D6B
:1001500012C0373091F03830A1F03430B9F48091CA
:1001600080008F7D03C0809180008F778093800016
:100170000DC084B58F7784BD09C08091B0008F77A2
:1001800003C08091B0008F7D8093B000F0E0EE0F4F
:10019000FF1FE458FF4FA591B4918FB7F894EC91ED
:1001A000611103C020952E2301C02E2B2C938FBFED
:1001B00008953FB7F8948091930190919401A09194
:1001C0009501B091960126B5A89B05C02F3F19F067
:1001D0000196A11DB11D3FBFBA2FA92F982F8827C7
:1001E000820F911DA11DB11DBC01CD0142E0660F22
:1001F000771F881F991F4A95D1F70895CF92DF92F4
:10020000EF92FF920F931F93CF93DF936C017A01CC
:100210008B01C0E0D0E0CE15DF0589F0D8016D91EB
:100220008D01D601ED91FC910190F081E02DC60188
:100230000995892B11F47E0102C02196ECCFC701EC
:10024000DF91CF911F910F91FF90EF90DF90CF90B2
:100250000895FC01538D448D252F30E0842F90E0CC
:10026000821B930B541710F0CF96089501970895B1
:10027000FC01918D828D981761F0828DDF01A80FAE
:10028000B11D5D968C91928D9F5F9F73928F90E0D0
:1002900008958FEF9FEF0895FC01918D828D98173F
:1002A00031F0828DE80FF11D858D90E008958FEF7C
:1002B0009FEF0895FC01918D228D892F90E0805C45
:1002C0009F4F821B91098F739927089587E991E0C9
:1002D0000E945A0121E0892B09F420E0822F089521
:1002E000FC01848DDF01A80FB11DA35ABF4F2C91D3
:1002F000848D90E001968F739927848FA689B789A2
:100300002C93A089B1898C9180648C93938D848D7A
:10031000981306C00288F389E02D80818F7D808349
:100320000895EF92FF920F931F93CF93DF93EC0109
:1003300081E0888F9B8D8C8D981305C0E889F989A1
:10034000808185FD24C0F62E0B8D10E00F5F1F4FBE
:100350000F731127E02E8C8DE8120CC00FB607FC2E
:10036000FACFE889F989808185FFF5CFCE010E9417
:100370007001F1CF8B8DFE01E80FF11DE35AFF4FA5
:10038000F0820B8FEA89FB898081806207C0EE8949
:10039000FF896083E889F98980818064808381E0B6
:1003A00090E0DF91CF911F910F91FF90EF90089512
:1003B000CF93DF93EC01888D8823C9F0EA89FB890C
:1003C000808185FD05C0A889B9898C9186FD0FC003
:1003D0000FB607FCF5CF808185FFF2CFA889B989D8
:1003E0008C9185FFEDCFCE010E947001E7CFDF91A8
:1003F000CF91089580E090E0892B29F00E9466015A
:1004000081110C940000089520918C0130918D0190
:100410002817390771F490918A0180918B01981700
:1004200041F0E0918A01F0E0E65BFE4F808190E0D0
:1004300008958FEF9FEF089508951F93CF93DF9353
:10044000DC015C962D913C915D972115310539F4C5
:1004500081E090E013969C938E9312973DC0519645
:10046000ED91FC91529750969C915097892F8095D1
:100470001FB75E964C915E9741FB772770F941FD5F
:100480006095F8944081772311F0492B01C04823EF
:100490004083E9012197F1F748E0508160FF02C0F5
:1004A000592B01C058235083E9012197F1F7669534
:1004B000415099F7772321F090818923808303C0ED
:1004C0008081982B90831FBF5C968D919C915D9746
:1004D0000197F1F721E030E0C901DF91CF911F9141
:1004E000089520918C0130918D012817390771F4FE
:1004F00080918B0120918A0190E0805C9F4F821B4C
:10050000910960E470E00E949507089580E090E012
:10051000089520918C0130918D0128173907B9F485
:1005200090918A0180918B01981789F0E0918A015E
:10053000F0E0E65BFE4F808120918A0130E02F5F82
:100540003F4F2F73332720938A0190E008958FEF58
:100550009FEF0895E0918C01F0918D01E817F90764
:1005600069F4A389B4899C918589809589238C93AA
:1005700010928D0110928C0181E0089580E0089521
:10058000089580E090E00895009769F0FC010190E3
:100590000020E9F73197AF01481B590BBC0187E9EF
:1005A00091E00C94FE0080E090E00895CF93DF93FB
:1005B0000E94C402EC018AE291E00E94C4028C0F06
:1005C0009D1FDF91CF9108958F929F92AF92BF921E
:1005D0000F931F93CF93DF93CDB7DEB7A1970FB6DD
:1005E000F894DEBF0FBECDBF19A2423008F44AE036
:1005F0008E010F5D1F4F842E912CA12CB12CA501D3
:1006000094010E94A907E62FB901CA0101501109FE
:10061000EA3014F4E05D01C0E95CD801EC93232BCF
:10062000242B252B61F7C8010E94C402A1960FB6A6
:10063000F894DEBF0FBECDBFDF91CF911F910F9118
:10064000BF90AF909F908F9008950F931F93CF937B
:10065000DF93EC0188819981009729F02A813B8101
:100660002617370788F48B016F5F7F4F0E941209AE
:10067000009761F0998388831B830A832C813D81D5
:10068000232B11F4FC01108281E001C080E0DF9196
:10069000CF911F910F9108950E94DC091F920F9234
:1006A0000FB60F9211242F933F938F939F93AF9385
:1006B000BF9380918F0190919001A0919101B09191
:1006C000920130918E0123E0230F2D3720F4019603
:1006D000A11DB11D05C026E8230F0296A11DB11D65
:1006E00020938E0180938F0190939001A0939101AC
:1006F000B09392018091930190919401A091950102
:10070000B09196010196A11DB11D80939301909324
:100710009401A0939501B0939601BF91AF919F91E1
:100720008F913F912F910F900FBE0F901F901895B2
:100730001F920F920FB60F9211242F933F934F9356
:100740005F936F937F938F939F93AF93BF93EF9339
:10075000FF9387E991E00E947001FF91EF91BF91B3
:10076000AF919F918F917F916F915F914F913F9149
:100770002F910F900FBE0F901F9018951F920F9200
:100780000FB60F9211242F938F939F93EF93FF93A4
:10079000E091A701F091A8018081E091AD01F09175
:1007A000AE0182FD12C090818091B0018F5F8F7386
:1007B0002091B101821751F0E091B001F0E0E956CB
:1007C000FE4F958F8093B00101C08081FF91EF9122
:1007D0009F918F912F910F900FBE0F901F901895A2
:1007E0001F920F920FB60F9211242F933F934F93A6
:1007F0005F936F937F938F939F93AF93BF93EF9389
:10080000FF93E0918C01F0918D01309709F451C074
:10081000968DA685B785858591FF04C09C91892317
:1008200029F447C09C91892309F043C0A389B48966
:100830009C918589809589238C93868997890197D6
:10084000F1F7608D718DA685B785558538E020E07C
:10085000CB010197F1F7822F90E095958795282F8E
:100860004C91452309F02068315091F7868D81FD28
:10087000209580918B0190E001968F73992730919C
:100880008A01381749F0A0918B01B0E0A65BBE4FFA
:100890002C9380938B0103C0868D8160868F828D1F
:1008A000938D0197F1F7A389B4899C918589892B50
:1008B0008C93FF91EF91BF91AF919F918F917F9119
:1008C0006F915F914F913F912F910F900FBE0F90BD
:1008D0001F901895CF93DF9310929A01109299016F
:1008E00088EE93E0A0E0B0E080939B0190939C01A0
:1008F000A0939D01B0939E012AE031E030939801CE
:100900002093970125EC30E03093A4012093A301BC
:1009100024EC30E03093A6012093A50120EC30E0D8
:100920003093A8012093A70121EC30E03093AA0175
:100930002093A90122EC30E03093AC012093AB016D
:1009400026EC30E03093AE012093AD011092B0015F
:100950001092B1011092B2011092B30110923702BD
:10096000109236028093380290933902A0933A0293
:10097000B0933B028CE191E0909335028093340276
:1009800010924B0210924A0210924D0210924C02A9
:1009900010924F0210924E02109251021092500289
:1009A000609152026E7F6D7F609352026695617016
:1009B00081E0682786E00E948D00E4EBF0E024915E
:1009C000E0EAF0E08491882399F090E0880F991F85
:1009D000FC01EA57FF4FA591B491FC01E458FF4F89
:1009E000859194918FB7F894EC91E22BEC938FBFA3
:1009F000E4EBF0E0E491E0934402E0EAF0E0E4911B
:100A0000F0E0EE0FFF1FE458FF4F85919491909313
:100A1000460280934502E5EBF0E02491E1EAF0E044
:100A200084918823C1F090E0880F991FFC01EA5758
:100A3000FF4FC591D491FC01E458FF4FA591B491AB
:100A40009FB7F8948881E22FE0958E2388838C915C
:100A5000E823EC939FBF8091520281FD04C061E0C6
:100A600087E00E948D0087E080934002E5EBF0E094
:100A7000E491E0934102E1EAF0E0E491F0E0EE0F6E
:100A8000FF1FE057FF4F859194919093430280930D
:100A90004202DF91CF910895CF93DF93CDB7DEB7B8
:100AA00028970FB6F894DEBF0FBECDBF789484B5FB
:100AB000826084BD84B5816084BD85B5826085BD5A
:100AC00085B5816085BD80916E00816080936E00E8
:100AD00010928100809181008260809381008091DA
:100AE000810081608093810080918000816080938B
:100AF00080008091B10084608093B1008091B0004B
:100B000081608093B00080917A00846080937A0045
:100B100080917A00826080937A0080917A0081606F
:100B200080937A0080917A00806880937A00109296
:100B3000C100E091A701F091A80182E08083E091DB
:100B4000A301F091A4011082E091A501F091A6010A
:100B50008FEC80831092AF01E091AB01F091AC017A
:100B600086E08083E091A901F091AA0180818061F3
:100B70008083E091A901F091AA018081886080833F
:100B8000E091A901F091AA01808180688083E091C1
:100B9000A901F091AA0180818F7D808310924F027C
:100BA00010924E0210924D0210924C0210924B0283
:100BB00010924A028DE991E0909351028093500285
:100BC00090914002963108F057C02DEB30E0309301
:100BD0004B0220934A022BE931E030934D022093DF
:100BE0004C022CE231E030934F0220934E022091D0
:100BF0006800983050F031E09E3008F430E081E039
:100C000001C0880F3A95EAF701C084E0822B8093F7
:100C10006800983038F09E3040F0963148F020E07F
:100C200030E008C02DE630E005C02BE630E002C021
:100C30002CE630E03093480220934702983030F49D
:100C400081E001C0880F9A95EAF70EC0292F30E0A5
:100C50009E3018F42850310902C02E50310981E02D
:100C600001C0880F2A95EAF78093490280915002CB
:100C7000909151020197F1F780914E0290914F02AD
:100C8000892B21F180918C0190918D0122E0843398
:100C90009207E1F0009711F00E94AA02809152029F
:100CA0008E7F8093520210928B0110928A0184E30E
:100CB00092E090938D0180938C01E0914702F09136
:100CC0004802908180914902892B808301E010E0E5
:100CD0001A8219821C821B821E821D8260E070E0D3
:100CE000CE0101960E94250329813A8181110DC010
:100CF0002115310519F0C9010E947A081A8219825A
:100D00001E821D821C821B8207C01E821D826CE215
:100D100071E0C9010E94F30984E392E00E9471022C
:100D20006C01990FEE08FF08F7FE14C0E0919701DF
:100D3000F09198010190F081E02D6DE287E991E05A
:100D4000099566277727CB016C197D098E099F09C4
:100D50004AE003C04AE0C701B6010E94E4028AE209
:100D600091E00E94C40284E392E00E94710218168E
:100D7000190664F584E392E00E948902F82EE0915E
:100D80009701F09198010190F081E02D682F87E99B
:100D900091E00995FF821886ED80FE808FEFE81ABA
:100DA000F80AB701CE0101960E9425038823D9F2E3
:100DB00029813A818D819E81BE01695F7F4F820FBB
:100DC000931F0E94F309FE82ED82CDCF8D819E811B
:100DD000029728F01E830D83E981FA8111828D81AB
:100DE0009E81892B61F06DE271E089819A810E9478
:100DF000EA09892B21F48FE291E00E94D6020E9439
:100E0000D9004B015C0184EFC82EDD24D394E12C82
:100E1000F12C0E94D900DC01CB0188199909AA099B
:100E2000BB09883E9340A105B10558F021E0C21AE4
:100E3000D108E108F10888EE880E83E0981EA11C15
:100E4000B11CC114D104E104F10419F74D815E8194
:100E500069817A8187E991E00E94FE008AE291E04F
:100E60000E94C40288E391E00E94D6026D817E81D7
:100E700080E090E04AE00E94E4028AE291E00E9471
:100E8000C4028CE291E00E94D6028CE291E00E94C2
:100E9000D6028CE291E00E94D60289819A810E945A
:100EA0007A080E94FA0114CF8CE191E09093350208
:100EB0008093340284E392E00C94AA022F923F9232
:100EC0004F925F926F927F928F929F92AF92BF925A
:100ED000CF92DF92EF92FF920F931F93CF93DF9306
:100EE000CDB7DEB7CA1BDB0B0FB6F894DEBF0FBE63
:100EF000CDBF09942A88398848885F846E847D84B0
:100F00008C849B84AA84B984C884DF80EE80FD80B1
:100F10000C811B81AA81B981CE0FD11D0FB6F89427
:100F2000DEBF0FBECDBFED01089597FB072E16F46F
:100F3000009407D077FD09D00E94CB0707FC05D0AD
:100F40003EF4909581959F4F0895709561957F4FE0
:100F50000895A1E21A2EAA1BBB1BFD010DC0AA1FFA
:100F6000BB1FEE1FFF1FA217B307E407F50720F012
:100F7000A21BB30BE40BF50B661F771F881F991F8D
:100F80001A9469F760957095809590959B01AC01D6
:100F9000BD01CF010895AA1BBB1B51E107C0AA1FC9
:100FA000BB1FA617B70710F0A61BB70B881F991F0A
:100FB0005A95A9F780959095BC01CD010895EE0F43
:100FC000FF1F0590F491E02D0994CF93DF938230B9
:100FD000910510F482E090E0E0915502F091560204
:100FE00020E030E0C0E0D0E0309711F14081518145
:100FF00048175907C0F04817590761F48281938157
:10100000209719F09B838A832BC09093560280937C
:10101000550226C02115310519F04217530718F45F
:101020009A01BE01DF01EF010280F381E02DDCCFE8
:101030002115310509F1281B390B2430310590F4B5
:1010400012968D919C9113976115710521F0FB010A
:101050009383828304C09093560280935502FD01CE
:10106000329644C0FD01E20FF31F81939193225009
:1010700031092D933C933AC0209153023091540290
:10108000232B41F42091020130910301309354024B
:101090002093530220910001309101012115310567
:1010A00041F42DB73EB74091040150910501241B36
:1010B000350BE0915302F0915402E217F307A0F4CC
:1010C0002E1B3F0B2817390778F0AC014E5F5F4F9E
:1010D0002417350748F04E0F5F1F5093540240937A
:1010E00053028193919302C0E0E0F0E0CF01DF91E1
:1010F000CF9108950F931F93CF93DF93009709F437
:101100008CC0FC013297138212820091550210911B
:1011100056020115110581F420813181820F931F40
:1011200020915302309154022817390779F5F09332
:101130005402E093530271C0D80140E050E0AE1772
:10114000BF0750F412962D913C911397AD012115D4
:10115000310509F1D901F3CF9D01DA0133832283EF
:1011600060817181860F971F8217930769F4EC01E4
:1011700028813981260F371F2E5F3F4F318320830F
:101180008A819B8193838283452B29F4F0935602B5
:10119000E093550242C01396FC93EE931297ED0133
:1011A000499159919E01240F351FE217F30771F4FD
:1011B00080819181840F951F029611969C938E9346
:1011C0008281938113969C938E931297E0E0F0E0D6
:1011D000D80112968D919C911397009719F0F80100
:1011E0008C01F6CF8D919C9198012E5F3F4F820F1D
:1011F000931F20915302309154022817390769F444
:10120000309729F4109256021092550202C01382B0
:1012100012821093540200935302DF91CF911F91D9
:101220000F910895A0E0B0E0E8E1F9E00C946207C6
:10123000EC01009721F4CB010E94E507B8C0FC0146
:10124000E60FF71F9C0122503109E217F30708F45B
:10125000ACC0D9010D911C91119706171707B0F07A
:101260000530110508F49FC0C80104978617970739
:1012700008F499C002501109061B170B0193119332
:101280006D937C93CF010E947A088DC05B01A01AF8
:10129000B10A4C01800E911EA0915502B0915602E8
:1012A00040E050E0E12CF12C109709F44AC0A81559
:1012B000B905D1F56D907C901197630182E0C80E5D
:1012C000D11CCA14DB0480F1A3014A195B096A012D
:1012D00082E0C80ED11C1296BC9012971396AC9166
:1012E000B5E0CB16D10440F0B282A3835183408392
:1012F000D9016D937C930AC00E5F1F4FC301800F0D
:10130000911FF90191838083EB2DFA2FE114F104F1
:1013100031F0D7011396FC93EE93129744C0F093EB
:101320005602E09355023FC08D919C91119748174A
:10133000590708F4AC017D0112960D90BC91A02DC7
:10134000B3CF809153029091540288159905E1F42E
:1013500046175707C8F4809100019091010100974A
:1013600041F48DB79EB74091040150910501841B53
:10137000950BE817F907C8F4F0935402E093530271
:10138000F901718360830FC0CB010E94E5077C01E6
:10139000009759F0A801BE010E94E109CE010E9408
:1013A0007A08C70104C0CE0102C080E090E0CDB74A
:1013B000DEB7EEE00C947E0781E090E0F8940C94A8
:1013C000FA09FB01DC0102C001900D92415050402E
:1013D000D8F70895FB01DC018D910190801901106F
:1013E000D9F3990B0895FB01DC0101900D920020C7
:1013F000E1F7089510E0C2E6D0E004C0FE010E94CB
:0E140000DF072196C336D107C9F7F894FFCF56
:10140E00000057028000000000009101FE0029013B
:10141E00D8015A0138014C01000000001D02FE00E7
:10142E00C1021C027102890204020D0A003100532E
:10143E00756363657373210054616D61C3B16F2071
:0A144E0064656C206461746F3A005D
:00000001FF
