:100000000C9458000C9480000C9480000C94800098
:100010000C9480000C9480000C9480000C94800060
:100020000C9480000C9480000C9480000C94800050
:100030000C9480000C9480000C9480000C94800040
:100040000C944F030C9480000C94BF030C94990300
:100050000C9480000C9480000C9480000C94800020
:100060000C94F1030C94800000000000250028008F
:100070002B00040404040404040402020202020229
:10008000030303030303010204081020408001025C
:1000900004081020010204081020000000080002DB
:1000A00001000003040700000000000000001F051D
:1000B00011241FBECFEFD8E0DEBFCDBF11E0A0E01E
:1000C000B1E0E4ECFCE002C005900D92A832B1076B
:1000D000D9F722E0A8E2B1E001C01D92A037B20733
:1000E000E1F710E0C8E5D0E004C02197FE010E94CE
:1000F0005506C735D107C9F70E9458050C9460060C
:100100000C94000090E0FC01E656FF4F2491FC01A6
:10011000EA57FF4F3491FC01EE58FF4FE491EE2374
:10012000B1F1222339F1233091F038F42130A9F0D4
:10013000223001F584B58F7D12C0273091F0283030
:10014000A1F02430B9F4809180008F7D03C08091AC
:1001500080008F77809380000DC084B58F7784BD39
:1001600009C08091B0008F7703C08091B0008F7D6F
:100170008093B000F0E0EE0FFF1FE859FF4FA5910C
:10018000B4918FB7F894EC913E2B3C938FBF0895B8
:100190003FB7F8948091C3019091C401A091C5012B
:1001A000B091C60126B5A89B05C02F3F19F0019656
:1001B000A11DB11D3FBFBA2FA92F982F8827820FED
:1001C000911DA11DB11DBC01CD0142E0660F771F3D
:1001D000881F991F4A95D1F70895CF92DF92EF9229
:1001E000FF920F931F93CF93DF936C017A018B01E2
:1001F000C0E0D0E0CE15DF0589F0D8016D918D010A
:10020000D601ED91FC910190F081E02DC601099598
:10021000892B11F47E0102C02196ECCFC701DF913A
:10022000CF911F910F91FF90EF90DF90CF900895A5
:10023000E0914801F0914901309729F01092B50101
:100240001092B40109940895CF93DF93AC01E0912B
:10025000BC01F091BD013097F1F09091B701809110
:10026000B6019817C0F090E0292F30E02617370725
:1002700054F4D901A85DBE4FEA01C20FD31F888193
:100280008C939F5FF1CF1092B7016093B601CB01C1
:10029000DF91CF910994DF91CF910895FC01538DA7
:1002A000448D252F30E0842F90E0821B930B541750
:1002B00010F0CF96089501970895FC01918D828DDD
:1002C000981761F0828DDF01A80FB11D5D968C91AA
:1002D000928D9F5F9F73928F90E008958FEF9FEFB5
:1002E0000895FC01918D828D981731F0828DE80F71
:1002F000F11D858D90E008958FEF9FEF0895FC012B
:10030000918D228D892F90E0805C9F4F821B9109F7
:100310008F739927089587EC91E00E947F0121E077
:10032000892B09F420E0822F0895FC01848DDF01E0
:10033000A80FB11DA35ABF4F2C91848D90E0019658
:100340008F739927848FA689B7892C93A089B18947
:100350008C9180648C93938D848D981306C0028851
:10036000F389E02D80818F7D80830895EF92FF9245
:100370000F931F93CF93DF93EC0181E0888F9B8DC8
:100380008C8D981305C0E889F989808185FD24C08A
:10039000F62E0B8D10E00F5F1F4F0F731127E02E0D
:1003A0008C8DE8120CC00FB607FCFACFE889F989EA
:1003B000808185FFF5CFCE010E949501F1CF8B8D15
:1003C000FE01E80FF11DE35AFF4FF0820B8FEA891F
:1003D000FB898081806207C0EE89FF896083E8899C
:1003E000F98980818064808381E090E0DF91CF9102
:1003F0001F910F91FF90EF900895CF93DF93EC0141
:10040000888D8823C9F0EA89FB89808185FD05C034
:10041000A889B9898C9186FD0FC00FB607FCF5CF6E
:10042000808185FFF2CFA889B9898C9185FFEDCFB6
:10043000CE010E949501E7CFDF91CF91089580E032
:1004400090E0892B29F00E948B0181110C9400000F
:10045000089585ED8093BC008091BC0084FDFCCFA5
:100460001092B301089540916A01262F30E0240FC5
:10047000311D21323105DCF42091B3012430C9F45F
:10048000FC0180E090E0861758F430916A012191D8
:10049000DC01A65BBE4FA30FB11D2C930196F3CFD9
:1004A00080916A01680F60936A0180E0089581E09D
:1004B000089582E008950895E091B7018091B60112
:1004C000E81730F4F0E0E85DFE4F808190E0089599
:1004D0008FEF9FEF08959091B7018091B601981723
:1004E00050F4E92FF0E0E85DFE4F208130E09F5F9F
:1004F0009093B70102C02FEF3FEFC901089580919B
:10050000B60190E02091B701821B91090895CF9325
:10051000DF9300D0CDB7DEB7CB01642F49835A8378
:100520000E9433024981842F5A81952F0F900F909A
:10053000DF91CF910895CF93DF931F92CDB7DEB7B0
:10054000698361E0CE0101960E94330281E090E070
:100550000F90DF91CF910895089580E090E0089585
:100560008F929F92AF92BF920F931F93CF93DF937F
:10057000CDB7DEB7A1970FB6F894DEBF0FBECDBFE3
:1005800019A2423008F44AE08E010F5D1F4F842EFD
:10059000912CA12CB12CA50194010E943306E62FC9
:1005A000B901CA0101501109EA3014F4E05D01C03B
:1005B000E95CD801EC93232B242B252B61F7011543
:1005C000110571F0F80101900020E9F73197AF01B2
:1005D000401B510BB80187EC91E00E94ED0002C076
:1005E00080E090E0A1960FB6F894DEBF0FBECDBFBD
:1005F000DF91CF911F910F91BF90AF909F908F90FF
:1006000008950E945B06CF92DF92EF92FF92809155
:10061000B60190E02091B701821B9109029784F006
:1006200084E692E00E946B02E091C701F091C8015C
:100630000190F081E02D682F87EC91E00995E7CFDC
:1006400084E692E00E946B026C01990FEE08FF08AD
:10065000F7FE14C0E091C701F091C8010190F0814C
:10066000E02D6DE287EC91E0099566277727CB01B5
:100670006C197D098E099F094AE003C04AE0C70151
:10068000B6010E94B00242E050E064E271E087EC03
:1006900091E0FF90EF90DF90CF900C94ED001F92CF
:1006A0000F920FB60F9211242F933F938F939F9326
:1006B000AF93BF938091BF019091C001A091C10100
:1006C000B091C2013091BE0123E0230F2D3720F4F9
:1006D0000196A11DB11D05C026E8230F0296A11D9C
:1006E000B11D2093BE018093BF019093C001A093E0
:1006F000C101B093C2018091C3019091C401A09146
:10070000C501B091C6010196A11DB11D8093C30121
:100710009093C401A093C501B093C601BF91AF915E
:100720009F918F913F912F910F900FBE0F901F902F
:1007300018951F920F920FB60F9211242F933F938B
:100740004F935F936F937F938F939F93AF93BF93D9
:10075000EF93FF9387EC91E00E949501FF91EF9159
:10076000BF91AF919F918F917F916F915F914F91C9
:100770003F912F910F900FBE0F901F9018951F92D1
:100780000F920FB60F9211242F938F939F93EF9395
:10079000FF93E091D701F091D8018081E091DD01D4
:1007A000F091DE0182FD12C090818091E0018F5FA7
:1007B0008F732091E101821751F0E091E001F0E0A8
:1007C000E953FE4F958F8093E00101C08081FF9136
:1007D000EF919F918F912F910F900FBE0F901F90CF
:1007E00018951F920F920FB60F9211242F933F93DB
:1007F0004F935F936F937F938F939F93AF93BF9329
:10080000EF93FF938091B900887F803609F49CC0F4
:1008100068F5883209F45BC090F4803109F454C063
:1008200038F4882309F4F6C0883009F44DC0F6C0C6
:10083000883109F44CC0803209F45DC0EFC08034C7
:1008400009F468C048F4803309F455C0883309F0CE
:10085000E5C080938D01D8C0803509F44FC088353C
:1008600009F45DC0883409F0D9C0D6C0883909F4CC
:10087000C7C0A8F4883709F467C038F4883609F48B
:1008800063C0803709F460C0C9C0883809F4B8C0B3
:10089000803909F45FC0803809F0C0C05BC0803B7C
:1008A00009F486C038F4803A09F466C0883A09F43D
:1008B0007FC0B4C0803C09F4A7C0883C09F4A4C040
:1008C000883B09F48AC0AAC08091B00110C0909101
:1008D000AF018091AE01981770F5E091AF0181E012
:1008E0008E0F8093AF01F0E0E257FE4F808180933E
:1008F000BB0085EC86C080938D018EC0E091AF0176
:1009000081E08E0F8093AF018091BB00F0E0E25751
:10091000FE4F80839091AF018091AE016EC0E09157
:10092000AF0181E08E0F8093AF018091BB00F0E0BA
:10093000E257FE4F80838091B20181116DC081E04A
:100940008093B10184EA61C083E08093B301109287
:100950008C01CFCF80918C01803208F051C0E091A2
:100960008C0181E08E0F80938C018091BB00F0E0C0
:10097000E459FE4F8083BDCF85EC8093BC0010927C
:10098000B30180918C01803230F4E0918C01F0E071
:10099000E459FE4F108260918C0170E0E091B80143
:1009A000F091B9018CE691E0099510928C0136C066
:1009B00084E08093B30110926B0110926A01E09180
:1009C000BA01F091BB01099580916A01811105C0BE
:1009D00081E080936A0110924A01E0916B0181E00D
:1009E0008E0F80936B01F0E0E65BFE4F8081809379
:1009F000BB0090916B0180916A01981708F479CF40
:100A000085E88093BC000AC085EC8093BC001092FE
:100A1000B30104C010928D010E942902FF91EF9151
:100A2000BF91AF919F918F917F916F915F914F9106
:100A30003F912F910F900FBE0F901F901895E7ECEC
:100A4000F1E01382128288EE93E0A0E0B0E08483AC
:100A50009583A683B78324E031E03183208325EC9E
:100A600030E03587248724EC30E03787268720EC78
:100A700030E0318B208B21EC30E0338B228B22EC69
:100A800030E0358B248B26EC30E0378B268B118EB3
:100A9000128E138E148EE4E6F2E0138212828483A7
:100AA0009583A683B78386E191E09183808308953F
:100AB000789484B5826084BD84B5816084BD85B539
:100AC000826085BD85B5816085BD80916E00816045
:100AD00080936E00109281008091810082608093EB
:100AE00081008091810081608093810080918000ED
:100AF0008160809380008091B10084608093B10018
:100B00008091B00081608093B00080917A00846011
:100B100080937A0080917A00826080937A0080913D
:100B20007A00816080937A0080917A008068809357
:100B30007A001092C10080E18093BA0088E191E0D0
:100B40009093BB018093BA0184E291E09093B90144
:100B50008093B8011092B7011092B6011092B501BE
:100B60001092B4011092B30181E08093B20110920F
:100B7000B10182E10E94820083E10E9482008091A3
:100B8000B9008E7F8093B9008091B9008D7F8093EA
:100B9000B90088E48093B80085E48093BC0083E0CA
:100BA00093E09093BD018093BC01E091D701F09157
:100BB000D80182E08083E091D301F091D4011082CA
:100BC000E091D501F091D6018FEC80831092DF0186
:100BD000E091DB01F091DC0186E08083E091D901B6
:100BE000F091DA01808180618083E091D901F091F8
:100BF000DA01808188608083E091D901F091DA0187
:100C0000808180688083E091D901F091DA01808150
:100C10008F7D80830E94C8004B015C0184E6C82E52
:100C2000D12CE12CF12C0E94C800DC01CB018819E9
:100C30009909AA09BB09883E9340A105B10558F05E
:100C400021E0C21AD108E108F10888EE880E83E09D
:100C5000981EA11CB11CC114D104E104F10419F7C0
:100C60000E941F02D7CFA1E21A2EAA1BBB1BFD01B7
:100C70000DC0AA1FBB1FEE1FFF1FA217B307E4077B
:100C8000F50720F0A21BB30BE40BF50B661F771FD3
:100C9000881F991F1A9469F76095709580959095B3
:100CA0009B01AC01BD01CF010895EE0FFF1F059020
:100CB000F491E02D099481E090E0F8940C946006A2
:040CC000F894FFCFD6
:100CC40000000000B601ED004E01FD017F015D0151
:100CD4007101000000009B028702AD025B027F02EB
:080CE4006B025C020D0A000026
:00000001FF
