:100000000C945F030C9487030C9487030C94870370
:100010000C9487030C9487030C9487030C94870338
:100020000C9487030C9487030C9487030C94870328
:100030000C9487030C9487030C9487030C94870318
:100040000C94FF0D0C9487030C948C040C946604A0
:100050000C9487030C9487030C9487030C948703F8
:100060000C9487030C948703010000010200000731
:100070000300301008000203090000000A00080015
:10008000100090071100050012000000130000008E
:100090001000B0121100070012008C0013000017AE
:1000A0002900220030000000310005053200050261
:1000B0003500060236000804370000003800040549
:1000C000390006023C0006023D0008045000000012
:1000D0005100EF005200000053003F01600000A7F4
:1000E00061000100900033000700330101000001AE
:1000F000020000070300301008000203090000009E
:100100000A0008001000900711000500120000000E
:10011000130000001000B0121100070012008C0044
:1001200013000017290022003000000031000505EF
:1001300032000502350006023600080437000000D0
:1001400038000405390006023C0006023D000804A0
:10015000500000005100EF005200000053003F012A
:10016000600000A761000100900033000700330128
:1001700000000000003E5B4F5B3E3E6B4F6B3E1C41
:100180003E7C3E1C183C7E3C181C577D571C1C5E58
:100190007F5E1C00183C1800FFE7C3E7FF0018242F
:1001A0001800FFE7DBE7FF30483A060E26297929D9
:1001B00026407F050507407F05253F5A3CE73C5A0E
:1001C0007F3E1C1C08081C1C3E7F14227F22145FEB
:1001D0005F005F5F06097F017F006689956A606046
:1001E00060606094A2FFA29408047E040810207E40
:1001F000201008082A1C08081C2A08081E101010C5
:10020000100C1E0C1E0C30383E3830060E3E0E060A
:10021000000000000000005F00000007000700145D
:100220007F147F14242A7F2A12231308646236491C
:100230005620500008070300001C22410000412204
:100240001C002A1C7F1C2A08083E08080080703009
:100250000008080808080000606000201008040278
:100260003E5149453E00427F40007249494946217E
:1002700041494D331814127F1027454545393C4AF2
:100280004949314121110907364949493646494909
:10029000291E000014000000403400000008142251
:1002A00041141414141400412214080201590906BF
:1002B0003E415D594E7C1211127C7F494949363EC0
:1002C000414141227F4141413E7F494949417F09A6
:1002D0000909013E414151737F0808087F00417FB1
:1002E00041002040413F017F081422417F404040AF
:1002F000407F021C027F7F0408107F3E4141413E47
:100300007F090909063E4151215E7F0919294626C8
:100310004949493203017F01033F4040403F1F20CC
:1003200040201F3F4038403F6314081463030478A3
:1003300004036159494D43007F41414102040810C3
:1003400020004141417F04020102044040404040FE
:10035000000307080020545478407F28444438386C
:1003600044444428384444287F38545454180008DE
:100370007E090218A4A49C787F0804047800447DB8
:1003800040002040403D007F1028440000417F4055
:10039000007C047804787C080404783844444438A9
:1003A000FC1824241818242418FC7C080404084889
:1003B0005454542404043F44243C4040207C1C20DA
:1003C00040201C3C4030403C44281028444C909035
:1003D000907C4464544C440008364100000077008F
:1003E00000004136080002010204023C2623263C9C
:1003F0001EA1A161123A4040207A38545455592127
:10040000555579412254547842215554784020540E
:100410005579400C1E52721239555555593954545C
:10042000545939555454580000457C410002457DCB
:10043000420001457C407D1211127DF0282528F0F4
:100440007C545545002054547C547C0A097F493221
:10045000494949323A4444443A324A4848303A4198
:1004600041217A3A42402078009DA0A07D3D424241
:10047000423D3D4040403D3C24FF2424487E4943CA
:10048000662B2FFC2F2BFF0929F620C0887E09033D
:1004900020545479410000447D413048484A323864
:1004A0004040227A007A0A0A727D0D19317D262990
:1004B000292F28262929292630484D402038080888
:1004C000080808080808382F10C8ACBA2F102834BC
:1004D000FA00007B000008142A142222142A1408AF
:1004E000AA005500AAAA55AA55AA000000FF0010AC
:1004F0001010FF00141414FF001010FF00FF101064
:10050000F010F0141414FC001414F700FF0000FFA6
:1005100000FF1414F404FC141417101F10101F1003
:100520001F1414141F00101010F0000000001F1002
:100530001010101F10101010F010000000FF10100D
:1005400010101010101010FF10000000FF14000019
:10055000FF00FF00001F10170000FC04F414141724
:1005600010171414F404F40000FF00F7141414140A
:10057000141414F700F7141414171410101F101F7C
:10058000141414F4141010F010F000001F101F00C9
:1005900000001F14000000FC140000F010F0101008
:1005A000FF10FF141414FF141010101F000000009F
:1005B000F010FFFFFFFFFFF0F0F0F0F0FFFFFF0093
:1005C00000000000FFFF0F0F0F0F0F3844443844A6
:1005D000FC4A4A4A347E02020606027E027E02631A
:1005E000554941633844443C04407E201E200602A5
:1005F0007E020299A5E7A5991C2A492A1C4C720182
:10060000724C304A4D4D303048784830BC625A46C2
:100610003D3E494949007E0101017E2A2A2A2A2AB3
:1006200044445F444440514A444040444A5140009D
:1006300000FF0103E080FF000008086B6B08361222
:10064000362436060F090F060000181800000010A7
:1006500010003040FF0101001F01011E00191D178D
:1006600012003C3C3C3C0000000000000000002464
:100670000027002A00000000080002010000030417
:1006800007000000000000000001020408102040E4
:10069000800102040810200102040810200000005C
:1006A00000250028002B00040404040404040402B0
:1006B000020202020203030303030300A91211242E
:1006C0001FBECFEFD8E0DEBFCDBF11E0A0E0B1E0AC
:1006D000E2E1FCE202C005900D92A63FB107D9F716
:1006E00022E0A6EFB1E001C01D92AD3CB207E1F7F8
:1006F00013E0CFE5D3E004C02197FE010E94FC1572
:10070000CE35D107C9F70E94DC0E0C9407160C9465
:100710000000FC01538D448D252F30E0842F90E0A4
:10072000821B930B541710F0CF96089501970895EC
:10073000FC01918D828D981761F0828DDF01A80FE9
:10074000B11D5D968C91928D9F5F9F73928F90E00B
:1007500008958FEF9FEF0895FC01918D828D98177A
:1007600031F0828DE80FF11D858D90E008958FEFB7
:100770009FEF0895FC01918D228D892F90E0805C80
:100780009F4F821B91098F739927089586EF91E0FF
:100790000E94BA0321E0892B09F420E0822F0895FA
:1007A000FC01848DDF01A80FB11DA35ABF4F2C910E
:1007B000848D90E001968F739927848FA689B789DD
:1007C0002C93A089B1898C9180648C93938D848DB6
:1007D000981306C00288F389E02D80818F7D808385
:1007E0000895EF92FF920F931F93CF93DF93EC0145
:1007F00081E0888F9B8D8C8D981305C0E889F989DD
:10080000808185FD24C0F62E0B8D10E00F5F1F4FF9
:100810000F731127E02E8C8DE8120CC00FB607FC69
:10082000FACFE889F989808185FFF5CFCE010E9452
:10083000D003F1CF8B8DFE01E80FF11DE35AFF4F7E
:10084000F0820B8FEA89FB898081806207C0EE8984
:10085000FF896083E889F98980818064808381E0F1
:1008600090E0DF91CF911F910F91FF90EF9008954D
:10087000CF93DF93EC01888D8823C9F0EA89FB8947
:10088000808185FD05C0A889B9898C9186FD0FC03E
:100890000FB607FCF5CF808185FFF2CFA889B98913
:1008A0008C9185FFEDCFCE010E94D003E7CFDF9181
:1008B000CF91089580E090E0892B29F00E94C60333
:1008C00081110C94000008950E9402161F920F924D
:1008D0000FB60F9211242F933F934F935F936F9313
:1008E0007F938F939F93AF93BF93EF93FF9386EF85
:1008F00091E00E94D003FF91EF91BF91AF919F9142
:100900008F917F916F915F914F913F912F910F90B8
:100910000FBE0F901F9018951F920F920FB60F9257
:1009200011242F938F939F93EF93FF93E0910602EF
:10093000F09107028081E0910C02F0910D0282FD9E
:1009400012C0908180910F028F5F8F7320911002EF
:10095000821751F0E0910F02F0E0EA50FE4F958FC0
:1009600080930F0201C08081FF91EF919F918F9141
:100970002F910F900FBE0F901F901895FC01A28D24
:10098000B38D9C9185A189238C938BB1972F9C7FEC
:100990008370892B8BB985B173708C7F782B75B977
:1009A000A48DB58D9C9186A189238C93A48DB58D42
:1009B0009C9182A1892B8C938BB1962F9C7F837005
:1009C000892B8BB985B163708C7F682B65B9A48D39
:1009D000B58D9C9186A189238C93A48DB58D9C9116
:1009E00082A1892B8C93A28DB38D9C9181A1892B9F
:1009F0008C938BB1952F9C7F8370892B8BB985B19C
:100A000053708C7F582B55B9A48DB58D9C9186A1C0
:100A100089238C93A48DB58D9C9182A1892B8C9375
:100A20008BB1942F9C7F8370892B8BB985B14370D8
:100A30008C7F482B45B9A48DB58D9C9186A18923C7
:100A40008C93A48DB58D9C9182A1892B8C93089554
:100A5000EF92FF920F931F93CF93DF93EC018A01E4
:100A6000790177FD4DC057FD4BC088859985681782
:100A700079070CF045C08A859B85481759070CF00B
:100A80003FC0E88DF98D90818CA1892380838D8969
:100A9000823059F08330B1F08130D1F48FEE90E0A4
:100AA000841B950B8B01BC0113C08FEE90E09C0161
:100AB000261B370BB9018FE391E09C01241B350BFA
:100AC000890106C08FE391E0861B970BBA018C0168
:100AD000AB0160E270E0CE010E94BE04A80161E2B9
:100AE00070E0CE010E94BE04A70162E270E0CE0178
:100AF0000E94BE04E88DF98D908188A1892B8083A6
:100B0000DF91CF911F910F91FF90EF900895AF92D9
:100B1000BF92CF92DF92EF92FF920F931F93CF93EA
:100B2000DF93FC01A08DB18D9C9184A189238C93CE
:100B3000A28DB38D9C9185A189238C938BB18370F9
:100B40008BB985B18C7F85B9A48DB58D9C9186A11B
:100B500089238C93A48DB58D9C9182A1892B8C9334
:100B60008BB1837080628BB985B18C7F826085B9CF
:100B7000A48DB58D9C9186A189238C93A48DB58D70
:100B80009C9182A1892B8C93A28DB38D9C9181A184
:100B9000892B8C938BB1972F9C7FB92E8370892BD7
:100BA0008BB985B1A72FA370AA2E8C7F8A2B85B90C
:100BB000C48DD58D988186A189238883C48DD58DD8
:100BC000988182A1892B88838BB1C62FCC7F8370BB
:100BD0008C2B8BB985B1D62FD3708C7F8D2B85B99B
:100BE000048D158DD8019C9186A189238C93048D49
:100BF000158DD8019C9182A1892B8C9321503109AC
:100C00004109510969017A0186E0F694E794D79485
:100C1000C7948A95D1F7C601761348C1019708F4A5
:100C200065C060E1A48DB58DCC9176A17C237C93C9
:100C3000A48DB58DCC9172A17C2B7C93A48DB58DA8
:100C4000CC9176A17C237C93A48DB58DCC9172A19F
:100C50007C2B7C93A48DB58DCC9176A17C237C9349
:100C6000A48DB58DCC9172A17C2B7C93A48DB58D78
:100C7000CC9176A17C237C93A48DB58DCC9172A16F
:100C80007C2B7C93A48DB58DCC9176A17C237C9319
:100C9000A48DB58DCC9172A17C2B7C93A48DB58D48
:100CA000CC9176A17C237C93A48DB58DCC9172A13F
:100CB0007C2B7C93A48DB58DCC9176A17C237C93E9
:100CC000A48DB58DCC9172A17C2B7C93A48DB58D18
:100CD000CC9176A17C237C93A48DB58DCC9172A10F
:100CE0007C2B7C93615009F09DCF98CF2F732150BE
:100CF000C8F0A48DB58D9C9186A189238C93A48D79
:100D0000B58D9C9182A1892B8C93A48DB58D9C91DE
:100D100086A189238C93A48DB58D9C9182A1892B6A
:100D20008C93E5CFA08DB18D9C9180A1892B8C9364
:100D3000DF91CF911F910F91FF90EF90DF90CF90B7
:100D4000BF90AF9008956BB163706B296BB965B1BB
:100D50006C7F6A2965B9048D158DD801FC9066A158
:100D60006F216C93048D158DD801FC9062A16F29C1
:100D70006C936BB163706C2B6BB965B16C7F6D2B31
:100D800065B9048D158DD801FC9066A16F216C9317
:100D9000048D158DD801FC9062A16F296C936BB105
:100DA00063706B296BB965B16C7F6A2965B9048D75
:100DB000158DD801FC9066A16F216C93048D158D63
:100DC000D801FC9062A16F296C936BB163706C2B9E
:100DD0006BB965B16C7F6D2B65B9048D158DD8012C
:100DE000FC9066A16F216C93048D158DD801FC9049
:100DF00062A16F296C936BB163706B296BB965B19C
:100E00006C7F6A2965B9048D158DD801FC9066A1A7
:100E10006F216C93048D158DD801FC9062A16F2910
:100E20006C936BB163706C2B6BB965B16C7F6D2B80
:100E300065B9048D158DD801FC9066A16F216C9366
:100E4000048D158DD801FC9062A16F296C936BB154
:100E500063706B296BB965B16C7F6A2965B9048DC4
:100E6000158DD801FC9066A16F216C93048D158DB2
:100E7000D801FC9062A16F296C936BB163706C2BED
:100E80006BB965B16C7F6D2B65B9048D158DD8017B
:100E9000FC9066A16F216C93048D158DD801FC9098
:100EA00062A16F296C93715009F04DCF019710F03A
:100EB00070E149CF2F73215008F434CF8BB1837088
:100EC0008B298BB985B18C7F8A2985B9448D558D45
:100ED000DA019C9186A189238C93448D558DDA018A
:100EE0009C9182A1892B8C938BB183708C2B8BB9B5
:100EF00085B18C7F8D2B85B9448D558DDA019C9100
:100F000086A189238C93448D558DDA019C9182A111
:100F1000892B8C93D0CF08952F923F924F925F925E
:100F20006F927F928F929F92AF92BF92CF92DF92F9
:100F3000EF92FF920F931F93CF93DF93CDB7DEB75E
:100F40002D970FB6F894DEBF0FBECDBFFC016A30FF
:100F500069F424898685978538E0239F800D911D4B
:100F600011249787868715861486E4C06D3009F4AE
:100F7000E1C09D878C8754895983828993899D8399
:100F80008C83A089B189BF83AE8386849784C4840F
:100F9000D58480859185C816D906BCF0EC85FD8581
:100FA0004489242F30E084859585F6E04F9F800D9D
:100FB000911D1124AC85BD851D969C938E931C9725
:100FC00056964C91411192C0B5C0EC85FD85828545
:100FD00093858816990614F7F981AF2EB12CC601B6
:100FE00026E0F29F800D911D112418161906B4F603
:100FF000C50123E0880F991F2A95E1F7880D991DF7
:10100000181619065CF655E0659FB001112416010B
:101010001A82CB018C199D0999878887D40118966B
:10102000BB87AA87BA81B53049F0E885F985E20D1A
:10103000F31DE059FE4F24912B8301C01B82240134
:1010400034013B8130FF13C0AC85BD85ED91FC912F
:10105000B981B13031F40084F185E02D2E813F81DA
:1010600019C00288F389E02DEE80FF801EC0EC815C
:10107000FD812E813F81E217F307F1F0AC85BD853C
:10108000ED91FC91B981B13059F40084F185E02DE6
:101090002C813D81A301B1018C859D8509950CC0F2
:1010A0000288F389E02DEC80FD8085019501A20185
:1010B000B6018C859D850995EB81E695EB83FFEF65
:1010C0006F1A7F0A4A0C5B1C2A853B8562167306E1
:1010D00009F0B7CF3A813F5F3A835FEF251A350AAF
:1010E000CA0CDB1C363009F09DCF58CF4AEF4203C3
:1010F000B001439F700D1124AC85BD8518964D91AC
:101100005C911997460F571F481759079CF483E0C5
:10111000220F331F8A95E1F71E968D919C911F97A0
:10112000280F391F1F963C932E931E971D961C92D5
:101130001E921C9781E090E02D960FB6F894DEBFCA
:101140000FBECDBFDF91CF911F910F91FF90EF9018
:10115000DF90CF90BF90AF909F908F907F906F90D7
:101160005F904F903F902F900895EF92FF920F93D2
:101170001F93DC01ED91FC9111971A960D911C9132
:101180001B9718962D913C9119970288F389E02DB1
:101190007B0140E050E060E070E009951F910F9105
:1011A000FF90EF9008956F927F928F929F92AF92EF
:1011B000BF92CF92DF92EF92FF920F931F93CF9344
:1011C000DF936C015A014801EB013B01620E731E73
:1011D000C615D70574F4D601ED91FC910484F5850C
:1011E000E02D87019401A501BE01C6010995219654
:1011F000EFCFDF91CF911F910F91FF90EF90DF9094
:10120000CF90BF90AF909F908F907F906F900895F8
:10121000EF92FF920F931F93DC01ED91FC91260F4B
:10122000371F215031090284F385E02D78018A01AE
:1012300009951F910F91FF90EF900895EF92FF9203
:101240000F931F937801DC01ED91FC91240F351F62
:101250008901015011090284F385E02D9B01099554
:101260001F910F91FF90EF9008956F927F928F9250
:101270009F92AF92BF92CF92DF92EF92FF920F9325
:101280001F93CF93DF93EC014B015A0169013801A1
:10129000E881F9810684F785E02D87010995E881C9
:1012A000F981A501460D571D415051090684F78566
:1012B000E02D9601B401CE010995E881F9810484FD
:1012C000F585E02D9301A501B401CE010995E881D2
:1012D000F981C80CD91CB601615071090484F585E7
:1012E000E02D9301A501CE010995DF91CF911F91CA
:1012F0000F91FF90EF90DF90CF90BF90AF909F90B5
:101300008F907F906F9008952F923F924F925F92AF
:101310006F927F928F929F92AF92BF92CF92DF9205
:10132000EF92FF920F931F93CF93DF9300D01F9202
:10133000CDB7DEB74C017B836A836A01590117017F
:101340009801241B350B37FF03C0319521953109D6
:10135000C5014A815B81841B950B97FF03C0919562
:101360008195910951E059838217930714F01982EE
:101370000BC09A2D8B2D5801092F182F9A818B8124
:10138000DB82CA82C92ED82E8A819B81A816B90613
:101390005CF49C2D8D2D6801092F182F9A818B816B
:1013A000BB82AA82A92EB82E2501AA81BB814A1A26
:1013B0005B0A38016C187D0877FE03C07194619454
:1013C0007108720157FE03C0BFEFEB1AFB0AF594D8
:1013D000E794C016D1061CF00FEF1FEF1FC001E00D
:1013E00010E01CC0D401ED91FC91B9810084F1851D
:1013F000E02D9101BB23C1F04A815B81B601C4019C
:101400000995E618F708F7FE04C0C00ED11EE40CDB
:10141000F51CEA81FB813196FB83EA834A815B817B
:10142000A416B506FCF604C0A6016A817B81E7CF4D
:101430000F900F900F90DF91CF911F910F91FF9020
:10144000EF90DF90CF90BF90AF909F908F907F9064
:101450006F905F904F903F902F900895089580E097
:1014600090E00895EF92FF920F931F93CF93DF9335
:101470008C01EB01DC0155962C912150233078F43E
:1014800030E0F901EA5FFE4F8081482F50E0220FE3
:10149000331FF901E050FF4FE080F18004C0E12CE0
:1014A000F12C40E050E0D8015896ED91FC9159970D
:1014B000308194962C912323208360E270E0C80150
:1014C0000E94BE04A70161E270E0C8010E94BE0450
:1014D00020E03CE241E050E0BE01C801DF91CF9145
:1014E0001F910F91FF90EF900C9487058F929F9220
:1014F000AF92BF92CF92DF92EF92FF920F931F9322
:10150000CF93DF93EC015A014901E88DF98D908169
:101510008CA1892380838D89823089F0833021F1E9
:10152000813081F58FEE90E09C01201B310B7B0117
:101530006C01C41AD50A840146015B0113C08FEE09
:1015400090E09C01281939094C01861A970A8FE30B
:1015500091E0AC01401B510B8C010A191B09780169
:1015600064015A01B90110C08FE391E09C01281970
:1015700039097C01E61AF70A6A0148018701B501B9
:10158000590102C07A016B01AB0160E570E0CE0148
:101590000E94BE04A40161E570E0CE010E94BE0479
:1015A000A50162E570E0CE010E94BE04A80163E5DA
:1015B00070E0CE010E94BE04A60160E270E0CE01A0
:1015C0000E94BE04A70161E270E0CE010E94BE0449
:1015D000E88DF98D908188A1892B8083DF91CF914F
:1015E0001F910F91FF90EF90DF90CF90BF90AF9041
:1015F0009F908F9008958F929F92AF92BF92CF92BB
:10160000DF92EF92FF920F931F93CF93DF93EC0142
:101610004701121613060CF059C0101611060CF0F3
:1016200055C0A885B9856A177B070CF04FC0CA84DE
:10163000DB844C155D050CF049C05B01A20EB31EA6
:10164000C501019797FD42C07A01E00EF11EF70136
:101650003197F7FD3BC077FF37C060E070E057FD82
:1016600002C0780102C040E050E08A179B072CF0CE
:10167000CD0101975D01A61AB70AEC15FD052CF006
:10168000F60131977601E41AF50A8F019C01CE012B
:101690000E94760A9701D5010E94DE159B01AC01DC
:1016A000B401CE010E9487050A851B8501501109EE
:1016B000288539852150310940E050E060E070E034
:1016C000CE010E94760A02C05901C9CFDF91CF91A5
:1016D0001F910F91FF90EF90DF90CF90BF90AF9050
:1016E0009F908F900895CF92DF92EF92FF920F9389
:1016F0001F93CF93DF93EC016801121613060CF0D1
:101700003FC077FD3DC08885998568177907C4F586
:10171000EA85FB854E175F079CF57A01E20EF31E02
:1017200087010150110917FD2BC057FF27C040E06A
:1017300050E00E171F0734F08F01015011097F018F
:10174000E41AF50A9B01CE010E94760A9701FF0C6C
:10175000440B550BB601CE010E9487050A851B85F7
:1017600001501109288539852150310940E050E0A8
:1017700060E070E0CE010E94760A02C07901D9CF04
:10178000DF91CF911F910F91FF90EF90DF90CF905D
:101790000895CF92DF92EF92FF920F931F93CF9312
:1017A000DF93EC01680112161306F4F557FD3CC0F7
:1017B0008A859B8548175907BCF5E885F9856E171A
:1017C0007F0794F57B01E20EF31EC701019797FD99
:1017D0002BC077FF27C060E070E08E179F072CF0CA
:1017E000CF0101977F01E61AF70A8A019C01CE0119
:1017F0000E94760A9701FF0C440B550BB601CE01EF
:101800000E9487050A851B850150110928853985A5
:101810002150310940E050E060E070E0CE010E94CC
:10182000760A02C07901D9CFDF91CF911F910F9134
:10183000FF90EF90DF90CF90089590E0FC01EB587F
:10184000F94F3491FC01E757F94F2491FC01E95518
:10185000F94FE491EE2309F43BC0332339F13330DF
:1018600091F038F43130A9F0323001F584B58F7D34
:1018700012C0373091F03830A1F03430B9F4809193
:1018800080008F7D03C0809180008F7780938000DF
:101890000DC084B58F7784BD09C08091B0008F776B
:1018A00003C08091B0008F7D8093B000F0E0EE0F18
:1018B000FF1FE356F94FA591B4918FB7F894EC91BF
:1018C000611103C020952E2301C02E2B2C938FBFB6
:1018D00008953FB7F8948091C9029091CA02A091EF
:1018E000CB02B091CC0226B5A89B05C02F3F19F0C2
:1018F0000196A11DB11D3FBFBA2FA92F982F882790
:10190000820F911DA11DB11DBC01CD0142E0660FEA
:10191000771F881F991F4A95D1F70895CF92DF92BC
:10192000EF92FF920F931F93CF93DF936C017A0195
:101930008B01C0E0D0E0CE15DF0589F0D8016D91B4
:101940008D01D601ED91FC910190F081E02DC60151
:101950000995892B11F47E0102C02196ECCFC701B5
:10196000DF91CF911F910F91FF90EF90DF90CF907B
:10197000089583708093A802209197023091980275
:101980004091990250919A02813059F0833049F088
:1019900030939C0220939B0250939E0240939D02A1
:1019A00008C050939C0240939B0230939E02209368
:1019B0009D02E091AB02F091AC0290818091B70260
:1019C000892380830895E3E9F2E0A68DB78D9C9189
:1019D00087A189238C9300C000C000C0000099B18A
:1019E00023B1A68DB78D3C9183A1832B8C9323705B
:1019F000892F8C7F822B0895CF93DF9390E0FC0199
:101A0000E757F94F2491FC01E955F94F8491882358
:101A100061F190E0880F991FFC01E559F94FC591DC
:101A2000D491FC01E356F94FA591B491611109C01D
:101A30009FB7F8948881209582238883EC912E2388
:101A40000BC0623061F49FB7F8943881822F809583
:101A500083238883EC912E2B2C939FBF06C08FB7D6
:101A6000F894E8812E2B28838FBFDF91CF910895C2
:101A70008E3008F08E508770806480937C00809157
:101A80007A00806480937A0080917A0086FDFCCF92
:101A9000809178002091790090E0922B08958F92A8
:101AA0009F92AF92BF92CF92DF92EF92FF926B0123
:101AB0007C010E94690C4B015C01C114D104E1045A
:101AC000F104F1F00E94690CDC01CB01881999093D
:101AD000AA09BB09883E9340A105B10570F321E036
:101AE000C21AD108E108F10888EE880E83E0981E3A
:101AF000A11CB11CC114D104E104F10419F7DDCF1C
:101B0000FF90EF90DF90CF90BF90AF909F908F901D
:101B10000895E091AB02F091AC0290818091B30204
:101B2000892B8083E091AF02F091B0029081809187
:101B3000B502892B8083E091B102F091B2029081CD
:101B40008091B602892B80838091BB02882371F03B
:101B500060E00E941D0C62E070E080E090E00E9476
:101B60004F0D61E08091BB020E941D0CE091AB0221
:101B7000F091AC0290818091B70289238083E0913B
:101B8000AD02F091AE0290818091B80289238083EA
:101B90008BB183708BB985B18C7F85B9E091AF0231
:101BA000F091B00290818091B90289238083E09105
:101BB000AF02F091B00290818091B502892B8083B1
:101BC00083E0E091AF02F091B00220819091B902E0
:101BD00092239083E091AF02F091B0022081909126
:101BE000B502922B9083815061F7E091AB02F091A6
:101BF000AC0290818091B302892B808308951F925B
:101C00000F920FB60F9211242F933F938F939F93B0
:101C1000AF93BF938091C5029091C602A091C70275
:101C2000B091C8023091C40223E0230F2D3720F475
:101C30000196A11DB11D05C026E8230F0296A11D26
:101C4000B11D2093C4028093C5029093C602A09355
:101C5000C702B093C8028091C9029091CA02A091B4
:101C6000CB02B091CC020196A11DB11D8093C90297
:101C70009093CA02A093CB02B093CC02BF91AF91D4
:101C80009F918F913F912F910F900FBE0F901F90BA
:101C900018956115710579F0FB0101900020E9F7B5
:101CA0003197AF01461B570BDC01ED91FC9102808F
:101CB000F381E02D099480E090E008958F929F9247
:101CC000AF92BF920F931F93CF93DF93CDB7DEB741
:101CD000A1970FB6F894DEBF0FBECDBF19A2423058
:101CE00008F44AE08E010F5D1F4F842E912CA12C29
:101CF000B12CA50194010E94BC15E62FB901CA01BF
:101D000001501109EA3014F4E05D01C0E95CD8012A
:101D1000EC93232B242B252B61F7B80186EF91E060
:101D20000E94490EA1960FB6F894DEBF0FBECDBF3C
:101D3000DF91CF911F910F91BF90AF909F908F90A7
:101D40000895CF92DF92EF92FF92CF93DF936B01D2
:101D50007C01E091F601F091F7010190F081E02D16
:101D60006DE286EF91E00995EC0166277727CB01BC
:101D70006C197D098E099F094AE00E945E0E8C0F46
:101D80009D1FDF91CF91FF90EF90DF90CF9008954E
:101D90000F931F93CF93DF93EC010E94490E8C01A8
:101DA00063EC71E0CE010E94490E800F911FDF911C
:101DB000CF911F910F910895CF93DF9300D000D062
:101DC00000D0CDB7DEB7789484B5826084BD84B589
:101DD000816084BD85B5826085BD85B5816085BD26
:101DE00080916E00816080936E00109281008091DE
:101DF0008100826080938100809181008160809366
:101E00008100809180008160809380008091B1008A
:101E100084608093B1008091B00081608093B000B5
:101E200080917A00846080937A0080917A00826049
:101E300080937A0080917A00816080937A0080910B
:101E40007A00806880937A001092C100E0910602C7
:101E5000F091070282E08083E0910202F091030298
:101E60001082E0910402F09105028FEC80831092C1
:101E70000E02E0910A02F0910B0286E08083E0916D
:101E80000802F0910902808180618083E09108025C
:101E9000F0910902808188608083E0910802F091CE
:101EA0000902808180688083E0910802F091090234
:101EB00080818F7D80830E94890DE091AB02F0913B
:101EC000AC0290818091B70289238083E091AD02BA
:101ED000F091AE0290818091B802892380838BB10A
:101EE00083708BB985B18C7F85B9E091AF02F09199
:101EF000B00290818091B90289238083E091AF0282
:101F0000F091B00290818091B502892B8083E0919D
:101F1000AF02F091B00290818091B9028923808351
:101F2000E091AF02F091B00290818091B502892BCF
:101F300080838AB183708AB984B18C7F84B9E0913F
:101F4000AD02F091AE0290818091B402892B808322
:101F50000E94E30C0E94E30C8AB18C6F8AB984B1B1
:101F6000836084B9E091AB02F091AC0290818091E2
:101F7000B302892B80830E94890DE091AB02F0911E
:101F8000AC0290818091B7028923808308E610E03B
:101F9000F80165917491F8013296459154916F3F23
:101FA000710531F4BA0180E090E00E944F0D04C049
:101FB00083E992E00E94BE040C5F1F4F21E00037CE
:101FC000120731F78091A8020E94B90C0FE311E0CB
:101FD0002FEE30E040E050E060E070E083E992E016
:101FE0000E94760A83E00E94B90C60E070E083E909
:101FF00092E00E94320A6AE070E080E090E00E9485
:102000004F0D1092A00210929F021092A202109205
:10201000A102E12C68EFF62EF092A602E092A50252
:10202000F092A402E092A30212E01093A70267E3E9
:1020300071E083E992E00E94C80E1092A002109213
:102040009F028EE190E09093A2028093A102F09211
:10205000A602E092A502F092A402E092A3021093DD
:10206000A70266E471E083E992E00E94C80E109234
:10207000A00210929F0286E490E09093A2028093C7
:10208000A102F092A602E092A502F092A402E092D0
:10209000A3021093A7026EE571E083E992E00E942B
:1020A000C80E1092A00210929F028EE690E09093CC
:1020B000A2028093A102F092A602E092A502F09201
:1020C000A402E092A3021093A70268E771E083E9FB
:1020D00092E00E94C80E1092A00210929F0286E920
:1020E00090E09093A2028093A102F092A602E09267
:1020F000A502F092A402E092A3021093A70264E862
:1021000071E083E992E00E94C80E1092A002109242
:102110009F028EEB90E09093A2028093A102F09236
:10212000A602E092A502F092A402E092A30210930C
:10213000A70265E971E083E992E00E94C80E10925F
:10214000A00210929F0286EE90E09093A2028093EC
:10215000A102F092A602E092A502F092A402E092FF
:10216000A3021093A7026DE971E083E992E00E9457
:10217000C80E22242A9473E0372E2091C10230E049
:10218000F901E955F94F04918091BE02A82FB0E002
:10219000FD01E955F94F14916091C00270E0FB0117
:1021A000E955F94FD4904091BF0250E0FA01E9554A
:1021B000F94FE490F901E757F94FA490FD01E75773
:1021C000F94FB490FB01E757F94FC490FA01E75774
:1021D000F94F34913A8360E00E94FC0C60E08091FA
:1021E000BF020E94FC0C812F90E0880F991F9C0178
:1021F0002356394F3E832D83F901A591B4918C91DB
:102200003B2D30953B8383238C93F12CF701EE0F0C
:10221000FF1FCF018356994F7C01FC01A591B4911A
:102220009C918A81809589238C9361E08091C10281
:102230000E94FC0C61E08091C0020E94FC0C10E046
:10224000000F111F0356194FF801A591B4918C91FD
:102250008A298C93ED2DF0E0EE0FFF1FE356F94F26
:10226000A591B491EC91C094CE22CC928091BE0203
:102270000E94380D4C018091BE020E94380D2C0145
:102280006101C81AD90A60E08091C1020E94FC0C69
:1022900060E08091C0020E94FC0CF801A591B4910D
:1022A0008C91A094AC828A218C9361E08091BE02D3
:1022B0000E94FC0CED81FE81A591B491EC91BE2AA7
:1022C000BC9261E08091BF020E94FC0C8091C00230
:1022D0000E94380D3C018091C0020E94380D5C01C3
:1022E0006816790629F491E099838414950409F01D
:1022F000198261E08091C1020E94FC0CF801A59155
:10230000B4919C912C8192239C93F701A591B49157
:102310009C913A81932B9C93ED81FE81A591B49180
:102320008C912B8182238C9360E08091BE020E946D
:10233000FC0C8091C0020E94380D8C018091BE027D
:102340000E94380DE090C202F090C302E114F10443
:1023500009F440C0BC01990F880B990B0E94C3146B
:102360002B013C01B801110F880B990B0E94C3147B
:102370009B01AC01C301B2010E94191420E030E0BE
:1023800040E85FE30E94AC132B013C01B6010D2C29
:10239000000C880B990B0E94C3149B01AC01C30174
:1023A000B2010E944F152B013C01B70180E090E083
:1023B0000E94C1149B01AC01C301B2010E944F15E0
:1023C00020E030E040E85AE30E944F150E948B1451
:1023D0008B0104C0081B190B01501C4F39813111AE
:1023E00002C000E010E0C8010B978D3D934008F05B
:1023F000ADC06BEA71E086EF91E00E94490EB60134
:10240000DD0C880B990B97FF03C00E94A10E03C03F
:102410004AE00E945E0E7101EA18FB0860EB71E071
:1024200086EF91E00E94490EB7010F2C000C880B3B
:10243000990B97FF03C00E94A10E03C04AE00E94BF
:102440005E0E66EB71E086EF91E00E94490EB801E6
:10245000110F880B990B4AE00E945E0E63EC71E04D
:1024600086EF91E00E94490EB0E4EB16B3E0FB0664
:1024700064F066EC71E086EF91E00E94C80E68EEB1
:1024800073E080E090E00E944F0DC7018E5B9240A8
:102490008038910560F465ED71E086EF91E00E946F
:1024A000C80E68EE73E080E090E00E944F0DC70117
:1024B0008A5592408236910560F46EE571E086EFB0
:1024C00091E00E94C80E68EE73E080E090E00E9408
:1024D0004F0DC701855F91408336910560F468E731
:1024E00071E086EF91E00E94C80E68EE73E080E034
:1024F00090E00E944F0DC7018159914082369105AD
:1025000060F464E871E086EF91E00E94C80E68EE26
:1025100073E080E090E00E944F0DC701895C910953
:102520008D3B910518F46DEE71E006C0E8ECEE16F7
:10253000F10464F46DE971E086EF91E00E94C80E49
:1025400068EE73E080E090E00E944F0D0E945A0414
:1025500014CEBF92CF92DF92EF92FF920F931F9310
:10256000CF93DF93E6EFF1E01382128288EE93E0DF
:10257000A0E0B0E084839583A683B7838DE091E0EB
:102580009183808385EC90E09587848784EC90E04C
:102590009787868780EC90E0918B808B81EC90E030
:1025A000938B828B82EC90E0958B848B86EC90E011
:1025B000978B868B118E128E138E148EECEBF2E0BD
:1025C0008FE0828380E1848387E0838386E0858354
:1025D0008CE291E0978386838AE090E09183808308
:1025E000C3E9D2E01B821A8280EFE82EF12CFD8233
:1025F000EC8200E411E01F830E83F986E8861B87D6
:102600000A871D8A1D861C861F861E86BB24B394DE
:10261000BC8ACC24CA94DC2CDB8ACA8AD98AC88AB0
:10262000BE8A8FE191E09983888382E188A7E8EBF5
:10263000F6E0E491F0E0EE0FFF1FE356F94FA591AD
:10264000B491B98FA88FE7EBF6E0E491F0E0EE0FDC
:10265000FF1FE356F94F859194919B8F8A8FE6EB8C
:10266000F6E0E491F0E0EE0FFF1FE356F94F85919D
:1026700094919D8F8C8FE5EBF6E0E491F0E0EE0F06
:10268000FF1FE356F94F859194919F8F8E8FEAE952
:10269000F6E0849188A3E9E9F6E0349139A3E8E90A
:1026A000F6E024912AA3E7E9F6E094919BA3482F52
:1026B00040954CA3E32FE095EDA3E22FE095EEA328
:1026C000E92FE095EFA3EC91E82BEC93EA8DFB8DDD
:1026D000908189A1892B8083EC8DFD8D90818AA1C9
:1026E000892B8083EE8DFF8D90818BA1892B808338
:1026F00061E081E10E94FC0C61E080E10E94FC0C41
:1027000061E08FE00E94FC0C61E08EE00E94FC0C16
:1027100061E082E10E941D0C61E082E10E94FC0CFC
:102720008AB18C6F8AB984B1836084B91D8A1D8691
:102730001C861F861E86BC8AD98AC88AF986E886C6
:102740001B870A87DF91CF911F910F91FF90EF9028
:10275000DF90CF90BF9008955058BB27AA270E94C2
:10276000C4130C9415150E94071538F00E940E151D
:1027700020F039F49F3F19F426F40C9404150EF45C
:10278000E095E7FB0C94FE14E92F0E94261558F300
:10279000BA17620773078407950720F079F4A6F546
:1027A0000C9448150EF4E0950B2EBA2FA02D0B01BA
:1027B000B90190010C01CA01A0011124FF27591B86
:1027C00099F0593F50F4503E68F11A16F040A22F8C
:1027D000232F342F4427585FF3CF469537952795FD
:1027E000A795F0405395C9F77EF41F16BA0B620BFC
:1027F000730B840BBAF09150A1F0FF0FBB1F661F43
:10280000771F881FC2F70EC0BA0F621F731F841F85
:1028100048F4879577956795B795F7959E3F08F0AB
:10282000B0CF9395880F08F09927EE0F979587956D
:1028300008950E942D140C9415150E940E1558F041
:102840000E94071540F029F45F3F29F00C94FE1414
:1028500051110C9449150C9404150E94261568F327
:102860009923B1F3552391F3951B550BBB27AA2749
:1028700062177307840738F09F5F5F4F220F331F83
:10288000441FAA1FA9F335D00E2E3AF0E0E832D04B
:1028900091505040E695001CCAF72BD0FE2F29D04E
:1028A000660F771F881FBB1F261737074807AB0720
:1028B000B0E809F0BB0B802DBF01FF2793585F4F95
:1028C0003AF09E3F510578F00C94FE140C94491593
:1028D0005F3FE4F3983ED4F3869577956795B79577
:1028E000F7959F5FC9F7880F911D9695879597F982
:1028F0000895E1E0660F771F881FBB1F62177307FB
:102900008407BA0720F0621B730B840BBA0BEE1F0F
:1029100088F7E09508950E9492146894B1110C9480
:10292000491508950E942E1588F09F5798F0B92FE9
:102930009927B751B0F0E1F0660F771F881F991FF4
:102940001AF0BA95C9F714C0B13091F00E94481539
:10295000B1E008950C944815672F782F8827B85F49
:1029600039F0B93FCCF3869577956795B395D9F74C
:102970003EF490958095709561957F4F8F4F9F4F56
:102980000895E89409C097FB3EF490958095709562
:1029900061957F4F8F4F9F4F9923A9F0F92F96E9AB
:1029A000BB279395F695879577956795B795F11120
:1029B000F8CFFAF4BB0F11F460FF1BC06F5F7F4FBD
:1029C0008F4F9F4F16C0882311F096E911C07723CF
:1029D00021F09EE8872F762F05C0662371F096E8D8
:1029E000862F70E060E02AF09A95660F771F881FA7
:1029F000DAF7880F9695879597F9089597F99F6765
:102A000080E870E060E008959FEF80EC0895002476
:102A10000A941616170618060906089500240A9443
:102A200012161306140605060895092E0394000CC9
:102A300011F4882352F0BB0F40F4BF2B11F460FF58
:102A400004C06F5F7F4F8F4F9F4F089557FD905881
:102A5000440F551F59F05F3F71F04795880F97FB62
:102A6000991F61F09F3F79F087950895121613061C
:102A70001406551FF2CF4695F1DF08C0161617064B
:102A80001806991FF1CF8695710561050894089580
:102A9000E894BB2766277727CB0197F908950E9412
:102AA00062150C9415150E94071538F00E940E153A
:102AB00020F0952311F00C94FE140C9404151124AD
:102AC0000C9449150E94261570F3959FC1F3950F3C
:102AD00050E0551F629FF001729FBB27F00DB11DA2
:102AE000639FAA27F00DB11DAA1F649F6627B00D32
:102AF000A11D661F829F2227B00DA11D621F739F1B
:102B0000B00DA11D621F839FA00D611D221F749F28
:102B10003327A00D611D231F849F600D211D822F6F
:102B2000762F6A2F11249F5750409AF0F1F0882396
:102B30004AF0EE0FFF1FBB1F661F771F881F9150C3
:102B40005040A9F79E3F510580F00C94FE140C9460
:102B500049155F3FE4F3983ED4F3869577956795E2
:102B6000B795F795E7959F5FC1F7FE2B880F911DED
:102B70009695879597F90895A1E21A2EAA1BBB1B7B
:102B8000FD010DC0AA1FBB1FEE1FFF1FA217B30739
:102B9000E407F50720F0A21BB30BE40BF50B661F4F
:102BA000771F881F991F1A9469F760957095809513
:102BB00090959B01AC01BD01CF0108950E94E615DF
:102BC000332312F48A1B9B0B0C94F715A29FB001C0
:102BD000B39FC001A39F700D811D1124911DB29F51
:102BE000700D811D1124911D08950E94E615B7FFF7
:102BF0000895821B930B0895EE0FFF1F0590F4912B
:102C0000E02D099481E090E0F8940C940716F89474
:022C1000FFCFF4
:102C120000003F013F01EFEF0000000000F1038ED2
:102C22000C89033804BA039803AC03000000008C3B
:102C3200078E0C2F0A2E0A28058409730BC90B353F
:102C420009FB0A320A8B075269746D6F2063617245
:102C5200646961636F004672656375656E6369617D
:102C62002072657370697261746F72696100467275
:102C7200656375656E63696120436172646961634E
:102C82006120466574616C0054656D706572617493
:102C92007572610050726573696F6E20417274655E
:102CA2007269616C00476C75636F736100436F6E8C
:102CB2007472616363696F6E65730058203D200012
:102CC2000959203D200009507265737375726520A1
:102CD2003D20000D0A005269746D6F2043617264D9
:102CE2006961636F004672656375656E6369612031
:102CF20052657370697261746F72696100476C75B5
:062D0200736F7361000015
:00000001FF
