:100000000C9435000C945D000C945D000C945D0024
:100010000C945D000C945D000C945D000C945D00EC
:100020000C945D000C945D000C945D000C945D00DC
:100030000C945D000C945D000C945D000C945D00CC
:100040000C9410020C945D000C9480020C945A02E3
:100050000C945D000C945D000C945D000C945D00AC
:100060000C945D000C945D00BB0311241FBECFEF08
:10007000D8E0DEBFCDBF21E0A2E2B1E001C01D9219
:10008000AC3CB207E1F711E0A0E0B1E0E6E6FCE04D
:1000900002C005900D92A232B107D9F710E0C5E376
:1000A000D0E004C02197FE010E941F04C433D10791
:1000B000C9F70E94B2020C9431060C9400003FB7BD
:1000C000F8948091270190912801A0912901B09185
:1000D0002A0126B5A89B05C02F3F19F00196A11D46
:1000E000B11D3FBFBA2FA92F982F8827820F911DCE
:1000F000A11DB11DBC01CD0142E0660F771F881F15
:10010000991F4A95D1F70895CF92DF92EF92FF920F
:100110000F931F93CF93DF936C017A018B01C0E0A3
:10012000D0E0CE15DF0589F0D8016D918D01D601A3
:10013000ED91FC910190F081E02DC6010995892B8C
:1001400011F47E0102C02196ECCFC701DF91CF915F
:100150001F910F91FF90EF90DF90CF900895089539
:1001600080E090E00895FC01538D448D252F30E010
:10017000842F90E0821B930B541710F0CF960895B4
:1001800001970895FC01918D828D981761F0828D01
:10019000DF01A80FB11D5D968C91928D9F5F9F73BB
:1001A000928F90E008958FEF9FEF0895FC01918D5D
:1001B000828D981731F0828DE80FF11D858D90E0CA
:1001C00008958FEF9FEF0895FC01918D228D892F67
:1001D00090E0805C9F4F821B91098F73992708954F
:1001E0008BE291E00E94E40021E0892B09F420E0F9
:1001F000822F0895FC01848DDF01A80FB11DA35A41
:10020000BF4F2C91848D90E001968F739927848F36
:10021000A689B7892C93A089B1898C9180648C932D
:10022000938D848D981306C00288F389E02D808118
:100230008F7D80830895EF92FF920F931F93CF934A
:10024000DF93EC0181E0888F9B8D8C8D981305C026
:10025000E889F989808185FD24C0F62E0B8D10E098
:100260000F5F1F4F0F731127E02E8C8DE8120CC00B
:100270000FB607FCFACFE889F989808185FFF5CFB1
:10028000CE010E94FA00F1CF8B8DFE01E80FF11D27
:10029000E35AFF4FF0820B8FEA89FB8980818062ED
:1002A00007C0EE89FF896083E889F98980818064CD
:1002B000808381E090E0DF91CF911F910F91FF90BB
:1002C000EF900895CF93DF93EC01888D8823C9F0D8
:1002D000EA89FB89808185FD05C0A889B9898C914F
:1002E00086FD0FC00FB607FCF5CF808185FFF2CFEA
:1002F000A889B9898C9185FFEDCFCE010E94FA00C3
:10030000E7CFDF91CF91089580E090E0892B29F02D
:100310000E94F00081110C9400000895CF93DF93A8
:10032000FC0144815581608171818BE291E00E94E2
:100330008400EC0142E050E068E171E08BE291E082
:100340000E9484008C0F9D1FDF91CF9108950E9421
:100350001C060F931F93CF93DF93EC018881998143
:10036000009729F02A813B812617370788F48B01F3
:100370006F5F7F4F0E945205009761F099838883D9
:100380001B830A832C813D81232B11F4FC011082F5
:1003900081E001C080E0DF91CF911F910F9108951E
:1003A000EF92FF920F931F93CF93DF93EC0119828B
:1003B00018821B821A821D821C826115710549F107
:1003C0008B01FB0101900020E9F731977F01E61ACC
:1003D000F70AB7010E94A9012881398181110DC056
:1003E0002115310519F0C9010E94BA041982188239
:1003F0001D821C821B821A820CC0FD82EC82B80115
:10040000C901DF91CF911F910F91FF90EF900C9454
:100410002A06DF91CF911F910F91FF90EF900895E1
:100420001F920F920FB60F9211242F933F938F9329
:100430009F93AF93BF938091230190912401A0914A
:100440002501B09126013091220123E0230F2D37A1
:1004500020F40196A11DB11D05C026E8230F0296C8
:10046000A11DB11D209322018093230190932401AB
:10047000A0932501B0932601809127019091280136
:10048000A0912901B0912A010196A11DB11D80936F
:10049000270190932801A0932901B0932A01BF91CD
:1004A000AF919F918F913F912F910F900FBE0F9021
:1004B0001F9018951F920F920FB60F9211242F9331
:1004C0003F934F935F936F937F938F939F93AF93DC
:1004D000BF93EF93FF938BE291E00E94FA00FF91AC
:1004E000EF91BF91AF919F918F917F916F915F91AC
:1004F0004F913F912F910F900FBE0F901F90189525
:100500001F920F920FB60F9211242F938F939F93E8
:10051000EF93FF93E0913B01F0913C018081E091EA
:100520004101F091420182FD12C09081809144010D
:100530008F5F8F7320914501821751F0E091440144
:10054000F0E0E55DFE4F958F8093440101C080810E
:10055000FF91EF919F918F912F910F900FBE0F9070
:100560001F901895CF93DF93CDB7DEB72E970FB6B8
:10057000F894DEBF0FBECDBF789484B5826084BD91
:1005800084B5816084BD85B5826085BD85B5816097
:1005900085BD80916E00816080936E001092810015
:1005A00080918100826080938100809181008160D0
:1005B0008093810080918000816080938000809191
:1005C000B10084608093B1008091B000816080931D
:1005D000B00080917A00846080937A0080917A00E4
:1005E000826080937A0080917A00816080937A00A3
:1005F00080917A00806880937A001092C100E09127
:100600003B01F0913C0182E08083E0913701F09161
:1006100038011082E0913901F0913A018FEC80832A
:1006200010924301E0913F01F091400186E0808308
:10063000E0913D01F0913E01808180618083E091F5
:100640003D01F0913E01808188608083E0913D0111
:10065000F0913E01808180688083E0913D01F091BE
:100660003E0180818F7D808344E050E06BE171E04A
:100670008BE291E00E94840042E050E068E171E08A
:100680008BE291E00E94840060E271E0CE01079667
:100690000E94D0016AE171E0CE0101960E94D00172
:1006A000CE0107960E948E0105E010E0580181E01E
:1006B000A81AB108012B09F44FC00E945F002B015A
:1006C0003C0184E6C82ED12CE12CF12C0E945F0065
:1006D000DC01CB0184199509A609B709883E93402E
:1006E000A105B10558F021E0C21AD108E108F108CE
:1006F00088EE480E83E0581E611C711CC114D104A1
:10070000E104F10419F785018BE291E00E94E40015
:10071000181619065CF68BE291E00E94C2008D87E4
:100720001E860D811E810F5F1F4FB801CE010196FD
:100730000E94A901882369F029813A818D819E81D7
:10074000BE01635F7F4F820F931F0E942A061E83A4
:100750000D8305E010E0D8CFCE0101960E948E01F6
:1007600089819A810E94BA048F8198850E94BA0477
:100770000E94840179CFEBE2F1E01382128288EECD
:1007800093E0A0E0B0E084839583A683B7838AE0FA
:1007900091E09183808385EC90E09587848784EC59
:1007A00090E09787868780EC90E0918B808B81EC3E
:1007B00090E0938B828B82EC90E0958B848B86EC1F
:1007C00090E0978B868B118E128E138E148E089567
:1007D0002F923F924F925F926F927F928F929F9251
:1007E000AF92BF92CF92DF92EF92FF920F931F933F
:1007F000CF93DF93CDB7DEB7CA1BDB0B0FB6F894F0
:10080000DEBF0FBECDBF09942A88398848885F842F
:100810006E847D848C849B84AA84B984C884DF80A0
:10082000EE80FD800C811B81AA81B981CE0FD11D84
:100830000FB6F894DEBF0FBECDBFED010895EE0FE9
:10084000FF1F0590F491E02D0994CF93DF93823040
:10085000910510F482E090E0E091CA01F091CB01A3
:1008600020E030E0C0E0D0E0309711F140815181CC
:1008700048175907C0F04817590761F482819381DE
:10088000209719F09B838A832BC09093CB01809390
:10089000CA0126C02115310519F04217530718F473
:1008A0009A01BE01DF01EF010280F381E02DDCCF70
:1008B0002115310509F1281B390B2430310590F43D
:1008C00012968D919C9113976115710521F0FB0192
:1008D0009383828304C09093CB018093CA01FD016E
:1008E000329644C0FD01E20FF31F81939193225091
:1008F00031092D933C933AC02091C8013091C90130
:10090000232B41F420910201309103013093C9015E
:100910002093C8012091000130910101211531057A
:1009200041F42DB73EB74091040150910501241BBD
:10093000350BE091C801F091C901E217F307A0F46B
:100940002E1B3F0B2817390778F0AC014E5F5F4F25
:100950002417350748F04E0F5F1F5093C90140938D
:10096000C8018193919302C0E0E0F0E0CF01DF91F4
:10097000CF9108950F931F93CF93DF93009709F4BE
:100980008CC0FC013297138212820091CA0110912F
:10099000CB010115110581F420813181820F931F54
:1009A0002091C8013091C9012817390779F5F093D2
:1009B000C901E093C80171C0D80140E050E0AE1712
:1009C000BF0750F412962D913C911397AD0121155C
:1009D000310509F1D901F3CF9D01DA013383228377
:1009E00060817181860F971F8217930769F4EC016C
:1009F00028813981260F371F2E5F3F4F3183208397
:100A00008A819B8193838283452B29F4F093CB01C8
:100A1000E093CA0142C01396FC93EE931297ED0146
:100A2000499159919E01240F351FE217F30771F484
:100A300080819181840F951F029611969C938E93CD
:100A40008281938113969C938E931297E0E0F0E05D
:100A5000D80112968D919C911397009719F0F80187
:100A60008C01F6CF8D919C9198012E5F3F4F820FA4
:100A7000931F2091C8013091C9012817390769F4E3
:100A8000309729F41092CB011092CA0102C0138250
:100A900012821093C9010093C801DF91CF911F9179
:100AA0000F910895A0E0B0E0E8E5F5E00C94EC03C8
:100AB000EC01009721F4CB010E942504B8C0FC0191
:100AC000E60FF71F9C0122503109E217F30708F4E3
:100AD000ACC0D9010D911C91119706171707B0F002
:100AE0000530110508F49FC0C801049786179707C1
:100AF00008F499C002501109061B170B01931193BA
:100B00006D937C93CF010E94BA048DC05B01A01A43
:100B1000B10A4C01800E911EA091CA01B091CB0187
:100B200040E050E0E12CF12C109709F44AC0A815E0
:100B3000B905D1F56D907C901197630182E0C80EE4
:100B4000D11CCA14DB0480F1A3014A195B096A01B4
:100B500082E0C80ED11C1296BC9012971396AC91ED
:100B6000B5E0CB16D10440F0B282A3835183408319
:100B7000D9016D937C930AC00E5F1F4FC301800F94
:100B8000911FF90191838083EB2DFA2FE114F10479
:100B900031F0D7011396FC93EE93129744C0F09373
:100BA000CB01E093CA013FC08D919C9111974817EA
:100BB000590708F4AC017D0112960D90BC91A02D4F
:100BC000B3CF8091C8019091C90188159905E1F4CE
:100BD00046175707C8F480910001909101010097D2
:100BE00041F48DB79EB74091040150910501841BDB
:100BF000950BE817F907C8F4F093C901E093C80111
:100C0000F901718360830FC0CB010E9425047C0130
:100C1000009759F0A801BE010E942106CE010E9452
:100C2000BA04C70104C0CE0102C080E090E0CDB795
:100C3000DEB7EEE00C94080481E090E0F8940C94A8
:100C40003106FB01DC0102C001900D924150504081
:100C5000D8F70895FB01DC0101900D920020E1F727
:060C60000895F894FFCF97
:100C66000000CC018000000000001B018400B300DE
:100C76006201E400C200D6000D0A00686F6C6100D4
:020C860031003B
:00000001FF
