:100000000C9458000C9480000C9480000C94800098
:100010000C9480000C9480000C9480000C94800060
:100020000C9480000C9480000C9480000C94800050
:100030000C9480000C9480000C9480000C94800040
:100040000C94D5010C9480000C9480000C948000DA
:100050000C9480000C9480000C9480000C94800020
:100060000C941F020C948000000000002500280062
:100070002B00040404040404040402020202020229
:10008000030303030303010204081020408001025C
:1000900004081020010204081020000000080002DB
:1000A00001000003040700000000000000006304DA
:1000B00011241FBECFEFD8E0DEBFCDBF11E0A0E01E
:1000C000B1E0E2E0F9E002C005900D92A831B1077D
:1000D000D9F721E0A8E1B1E001C01D92A23CB2072E
:1000E000E1F710E0C8E5D0E004C02197FE010E94CE
:1000F0007404C735D107C9F70E944D030C947F04DF
:100100000C94000090E0FC01E656FF4F2491FC01A6
:10011000EA57FF4F3491FC01EE58FF4FE491EE2374
:10012000B1F1222339F1233091F038F42130A9F0D4
:10013000223001F584B58F7D12C0273091F0283030
:10014000A1F02430B9F4809180008F7D03C08091AC
:1001500080008F77809380000DC084B58F7784BD39
:1001600009C08091B0008F7703C08091B0008F7D6F
:100170008093B000F0E0EE0FFF1FE859FF4FA5910C
:10018000B4918FB7F894EC913E2B3C938FBF0895B8
:100190003FB7F8948091BE019091BF01A091C0013A
:1001A000B091C10126B5A89B05C02F3F19F001965B
:1001B000A11DB11D3FBFBA2FA92F982F8827820FED
:1001C000911DA11DB11DBC01CD0142E0660F771F3D
:1001D000881F991F4A95D1F70895CF92DF92EF9229
:1001E000FF920F931F93CF93DF936C017A018B01E2
:1001F000C0E0D0E0CE15DF0589F0D8016D918D010A
:10020000D601ED91FC910190F081E02DC601099598
:10021000892B11F47E0102C02196ECCFC701DF913A
:10022000CF911F910F91FF90EF90DF90CF900895A5
:1002300085ED8093BC008091BC0084FDFCCF1092C2
:100240008701089540913A01262F30E0240F311D97
:1002500021323105DCF4209187012430C9F4FC01FE
:1002600080E090E0861758F430913A012191DC014A
:10027000A85EBE4FA30FB11D2C930196F3CF8091C2
:100280003A01680F60933A0180E0089581E0089593
:1002900082E00895089581E090E03091600120911E
:1002A0005F01321710F480E090E0919581959109FB
:1002B00008958091600190915F01891730F48F5FFC
:1002C0008093600180E090E008958FEF9FEF0895A4
:1002D00080915F0190E020916001821B9109089557
:1002E000CF92DF92EF92FF920F931F93CF93DF9302
:1002F0007C01262F972F8A0180918801882391F015
:10030000C62FD72F6E01C40ED51ECC15DD0571F09A
:100310006991D701ED91FC910190F081E02DC70129
:100320000995F3CF642F822F0E942201C801DF912B
:10033000CF911F910F91FF90EF90DF90CF90089594
:10034000CF93DF931F92CDB7DEB7698320918801E9
:100350002223D1F02091AB01203240F021E030E0A7
:10036000FC013383228380E090E015C080918901F5
:10037000E82FF0E0E657FE4F998190838F5F8093DE
:1003800089018093AB0105C061E0CE0101960E9416
:10039000220181E090E00F90DF91CF9108950895C0
:1003A00080E090E008950E947A041F920F920FB6A9
:1003B0000F9211242F933F938F939F93AF93BF93EB
:1003C0008091BA019091BB01A091BC01B091BD0197
:1003D0003091B90123E0230F2D3720F40196A11DA0
:1003E000B11D05C026E8230F0296A11DB11D209363
:1003F000B9018093BA019093BB01A093BC01B09363
:10040000BD018091BE019091BF01A091C001B0914A
:10041000C1010196A11DB11D8093BE019093BF0142
:10042000A093C001B093C101BF91AF919F918F91F3
:100430003F912F910F900FBE0F901F9018951F9214
:100440000F920FB60F9211242F933F934F935F9308
:100450006F937F938F939F93AF93BF93EF93FF938C
:100460008091B900887F803609F49CC068F5883295
:1004700009F45BC090F4803109F454C038F4882347
:1004800009F4F6C0883009F44DC0F6C0883109F48B
:100490004CC0803209F45DC0EFC0803409F468C0FC
:1004A00048F4803309F455C0883309F0E5C08093DF
:1004B0008501D8C0803509F44FC0883509F45DC086
:1004C000883409F0D9C0D6C0883909F4C7C0A8F467
:1004D000883709F467C038F4883609F463C0803778
:1004E00009F460C0C9C0883809F4B8C0803909F47B
:1004F0005FC0803809F0C0C05BC0803B09F486C093
:1005000038F4803A09F466C0883A09F47FC0B4C070
:10051000803C09F4A7C0883C09F4A4C0883B09F4D6
:100520008AC0AAC08091620110C09091840180911C
:100530008301981770F5E091840181E08E0F80931C
:100540008401F0E0ED59FE4F80818093BB0085EC83
:1005500086C0809385018EC0E091840181E08E0F7A
:10056000809384018091BB00F0E0ED59FE4F8083C1
:1005700090918401809183016EC0E091840181E0BB
:100580008E0F809384018091BB00F0E0ED59FE4F07
:1005900080838091860181116DC081E0809361012B
:1005A00084EA61C083E08093870110925E01CFCF1F
:1005B00080915E01803208F051C0E0915E0181E0DF
:1005C0008E0F80935E018091BB00F0E0E25CFE4FF5
:1005D0008083BDCF85EC8093BC0010928701809111
:1005E0005E01803230F4E0915E01F0E0E25CFE4FAB
:1005F000108260915E0170E0E0913C01F0913D015C
:100600008EE391E0099510925E0136C084E08093FC
:10061000870110923B0110923A01E0913801F0916C
:100620003901099580913A01811105C081E08093DB
:100630003A0110921801E0913B0181E08E0F809306
:100640003B01F0E0E85EFE4F80818093BB0090911B
:100650003B0180913A01981708F479CF85E880939F
:10066000BC000AC085EC8093BC001092870104C0D6
:10067000109285010E941801FF91EF91BF91AF91F7
:100680009F918F917F916F915F914F913F912F91AA
:100690000F900FBE0F901F901895789484B58260CC
:1006A00084BD84B5816084BD85B5826085BD85B516
:1006B000816085BD80916E00816080936E00109294
:1006C000810080918100826080938100809181000F
:1006D00081608093810080918000816080938000A0
:1006E0008091B10084608093B1008091B0008160FE
:1006F0008093B00080917A00846080937A0080912A
:100700007A00826080937A0080917A008160809381
:100710007A0080917A00806880937A001092C100FC
:100720001092600110925F01109289011092AB014A
:100730001092870181E0809386011092610182E12D
:100740000E94820083E10E9482008091B9008E7F26
:100750008093B9008091B9008D7F8093B90088E4BF
:100760008093B80085E48093BC0066246A94C3E655
:10077000D1E000E010E07724739438E0532E42E09B
:10078000442E95EE392E25EC222E7092880150923F
:10079000AA01109289011092AB01E091AD01F09194
:1007A000AE010280F381E02D45E050E062E171E0AE
:1007B0008DEA91E009956091AC018DEA91E00E948B
:1007C000A0019091AB018091AA01913208F042C042
:1007D000209187012111FCCF409287017092860100
:1007E000609285011092840190938301AAE8B1E0A0
:1007F000E3E6F1E02E2F2C1B291718F42D912193FD
:10080000F9CF1092620190916201880F892B809339
:10081000620180916101813069F4109261018091DF
:1008200062018093BB008091BC0083FDF8CF2092D1
:10083000BC0002C03092BC00809187018230E1F39D
:10084000809185018F3F31F080918501803211F0D8
:1008500080918501109289011092AB01109288015C
:100860008091AC018F5F8093AC010E94C8004B0166
:100870005C0184EFC82EDD24D394E12CF12C0E947E
:10088000C800DC01CB0188199909AA09BB09883E77
:100890009340A105B10558F081E0C81AD108E108DC
:1008A000F10828EE820E23E0921EA11CB11CC11497
:1008B000D104E104F10419F70115110509F465CF1C
:1008C0000E9400005ECFEDEAF1E01382128288EE12
:1008D00093E0A0E0B0E084839583A683B78384E0AF
:1008E00091E0918380830895EE0FFF1F0590F491AE
:1008F000E02D099481E090E0F8940C947F04F89442
:02090000FFCF27
:1009020000000000A0017001D0014A0168015901F4
:080912004B01782069732000FD
:00000001FF
